:020000021000EC
:10800000004000205DFC010099FC01009BFC010088
:108010000000000000000000000000000000000060
:108020000000000000000000000000009DFC0100B6
:1080300000000000000000009FFC0100A1FC010006
:10804000A3FC01002DB1010005010200A3FC010009
:10805000A3FC01000000000099010200A3FC010044
:10806000A3FC01005DFD0100A5FC0100A3FC0100D3
:10807000A3FC0100A3FC0100A3FC0100A3FC010080
:10808000A3FC0100A3FC0100A3FC0100A3FC010070
:10809000A3FC010005ED0100E1EC0100A3FC0100DF
:1080A000A3FC0100A3FC0100000000000000000090
:1080B00000000000000000000000000000000000C0
:1080C00010B5064C2378002B07D1054B002B02D0AE
:1080D000044800E000BF0123237010BD30220020BF
:1080E0000000000080B50200084B10B5002B03D043
:1080F0000749084800E000BF07480368002B00D18B
:1081000010BD064B002BFBD09847F9E7000000009C
:108110003422002080B50200282200200000000048
:10812000164B002B00D1144B9D46402292029A1A06
:10813000924600218B460F461348144A121A11F03A
:108140008EFE0F4B002B00D098470E4B002B00D01B
:1081500098470020002104000D000D48002802D09F
:108160000C4800E000BF0DF09FF82000290011F03E
:1081700002FB0DF083F8C04600000800004000201C
:10818000000000000000000028220020482B0020F2
:10819000000000000000000070B50E000024050083
:1081A00000686B68AA68D21A911B8C420DD2944267
:1081B00003D32100054808F06DFA195D00F0EAF8D4
:1081C000002802D00134E4B2EBE770BD48AD0200F4
:1081D0000368426810B5D21A914202D3024808F0EF
:1081E00059FA581810BDC04648AD020070B50400D9
:1081F0004068A368834219D01A1A511E02D20C4853
:1082000008F048FA013B1B78013343540021200059
:10821000FFF7C2FF05000120002D08D1A3686268A6
:10822000201D991A0139FFF7D3FF0570002070BD9A
:1082300048AD0200F7B54368026806009B1A019139
:108240005A1C02D1184811F09AFC0127002B02D0C9
:108250005F00BB4224D83C1E03D0380011F06CFCF8
:10826000040033680093009A73689D1A019A631999
:108270001278002B00D01A70002D04D02A0000992B
:10828000200011F0DAFD009B01356519002B02D0AA
:10829000180011F04DFC3460E4197560B460F7BD4E
:1082A00001277F42D9E7C04692AD020003000833A0
:1082B000F0B50360002389B0040043600372080036
:1082C0000D000DF0F2FC002854D00023EB56092BD2
:1082D00003DC2B49200008F025FA0023294EEB5639
:1082E000294F102200933900330002A80DF036FD0B
:1082F00002A9200011F0C7FC02A811F049FC234993
:10830000200008F00FFA0123EB56092B03DC1C496F
:10831000200008F007FA0123EB56102200933900E1
:10832000330002A80DF01AFD02A9200011F0ABFCE9
:1083300002A811F02DFC1549200008F0F3F90223E2
:10834000EB56092B03DC0E49200008F0EBF9022361
:10835000EB56102200930C49330002A80DF0FEFCEE
:1083600002A9200011F08FFC02A811F011FC2000DE
:1083700009B0F0BD0649200008F0D4F9F7E7C0467F
:10838000D8AD0200AEAD02005D560200B1AD0200F4
:10839000B3AD02000368426810B5D21A1211D0B210
:1083A0000138884206DB08011818914203D30248BD
:1083B00008F070F9002010BD48AD0200F8B50A6859
:1083C0004B6805009E1A00230F00341103604360C0
:1083D00083609C4208D00F4B9C4201D911F0C9FB2D
:1083E000300011F0A9FB0400A6192C606C60AE608F
:1083F0007E683F68BE420AD0002C05D039002000BC
:10840000FFF7DCFFFB68E36010341037F2E7280069
:108410006C60F8BDFFFFFF0FF7B5436802680F00FF
:108420009B1A04001B112C490122002B03D05A0077
:108430000091934203D88A424AD9274B0093009B6C
:10844000180111F079FB0600636822689D1A7519FE
:10845000002D05D039002800FFF7B0FFFB68EB6066
:10846000636825689C462A0033000020944514D098
:10847000002B0FD058609860186017681F60516813
:1084800010605F685960916857609F689960D16813
:108490009760D96010331032E8E76346591B1031FA
:1084A0007318256867680193AF4204D028000DF067
:1084B0009CFC1035F8E72068002801D011F038FB4B
:1084C000019B26606360009B1B01F618A660F7BD48
:1084D0000092161EB8D0B2E7FFFFFF0F10B50400E0
:1084E000034B036040300DF0A8FE200010BDC046D5
:1084F00030A102000300083373B504000D1E0360B1
:108500001AD0080011F0F3FC2E1801900F2807D99B
:10851000002201A9200008F0DBF8019B2060A36085
:1085200032002900206811F04AFB0022019B2168DB
:1085300063602000CA5476BD014811F01DFBC0469F
:10854000EDAD020073B5154D06002B78002B24D03D
:108550004368581C01F01EF80400316811F0BFFC9C
:108560002100684601F022F9200011F0FEFA0C4CBF
:10857000EC3420000EF0B9FA694601A80DF0B2FE05
:10858000782201A9200002F0B7FA01A80DF055FEEB
:10859000002368462B700DF050FE73BD752A002035
:1085A000502200207FB501280DD0002803D00228DA
:1085B00015D007B000BD01220A4B0B491A7068465E
:1085C000FFF798FF04E0094B68461968FFF76EFE55
:1085D0006846FFF7B7FF684611F0DAFAE9E70449A1
:1085E000EDE7C046742A0020CDAD020048260020E9
:1085F000CFAD02007FB5012810D0002803D002289B
:108600000ED007B000BD07496846FFF773FF684604
:10861000FFF798FF684611F0BBFAF2E70249F3E76B
:108620000249F1E7DAAD0200DFAD0200E6AD02007B
:108630007FB5012810D0002803D002280ED007B043
:1086400000BD07496846FFF755FF6846FFF77AFF08
:10865000684611F09DFAF2E70249F3E70249F1E7B3
:10866000BEAD0200C3AD0200C9AD02007FB5064930
:108670006846FFF73FFF6846FFF764FF684611F062
:1086800087FA07B000BDC046B9AD020010B5124C64
:1086900001280DD120680DF08FFA20680DF0E1FA65
:1086A00000230E4A13700E4A13700E4A136010BD59
:1086B000012903D12068FFF799FDEEE7012803DDCA
:1086C00020680DF067FAE8E70129E6DD002120685F
:1086D0000DF0A5FAE1E7C0464C260020722A0020E2
:1086E000732A00204C22002070B5254D28006530EB
:1086F000FF300DF0DBFF234C061E28D00022224B5A
:108700001A70224A1378013313702368002B05D1A5
:1087100001F008F820602368002B17D01B4D2B7840
:10872000002B07D000F0FEFF2368C01A96239B00A1
:10873000984217D8144D2B78002B07D000F0F2FF89
:108740002368C01A96239B00984213D870BD280056
:108750008D30FF300DF0AAFF0028DCD00B4B0A4A09
:108760001E70CFE701220021094B28781A70FFF70D
:108770008DFFEBE70122064B29781A700020F6E7FF
:10878000502200204C220020732A0020722A002050
:10879000752A002070B5624800F0D8F90C2000F06E
:1087A000F9FE04000DF075FA5E4E1020346000F002
:1087B000F1FE04000DF004FB5B4920000DF006FB08
:1087C000032120000DF023FB01212000FFF7E2FD33
:1087D00056490DF0FBFA01212000FFF7DBFD0321D4
:1087E0000DF015FB02212000FFF7D4FD50490DF0DC
:1087F000EDFA02212000FFF7CDFD03210DF007FB6C
:1088000001212000FFF7C6FD0021FFF7C3FD012174
:108810000DF0FDFA01212000FFF7BCFD0021FFF75C
:10882000B9FD444D29000DF0D1FA01212000FFF7D8
:10883000B1FD0121FFF7AEFD01210DF0E8FA0121A4
:108840002000FFF7A7FD0121FFF7A4FD29000DF08F
:10885000BDFA01212000FFF79DFD0221FFF79AFDDF
:1088600001210DF0D4FA01212000FFF793FD022130
:10887000FFF790FD29000DF0A9FA02212000FFF773
:1088800089FD0021FFF786FD01210DF0C0FA0221CC
:108890002000FFF77FFD0021FFF77CFD29000DF090
:1088A00095FA02212000FFF775FD0121FFF772FD07
:1088B00001210DF0ACFA02212000FFF76BFD012130
:1088C000FFF768FD29000DF081FA02212000FFF773
:1088D00061FD0221FFF75EFD01210DF098FA0221F2
:1088E0002000FFF757FD0221FFF754FD29000DF08E
:1088F0006DFA102000F04EFE050021000DF081F908
:108900000D4B1D60FFF7F0FE346800F00BFF010017
:1089100020000DF0FEF9782000F0FAFCF2E7C046E6
:108920005022002048260020A5850100F585010081
:10893000318601006D8601004C26002010B5054CE3
:10894000200000F043F8044A0449200011F006F921
:1089500010BDC04650220020002000206189010087
:10896000EB23194A9B0010B5C2501C330400C018F9
:108970000DF063FCF1239B00E0180DF05EFC8423F6
:108980009B00E01801F062FA2000C530FF3000F0D3
:1089900099FF20008D30FF3001F01EFA2000653075
:1089A000FF3001F019FA2000EC3001F0EBFE20005E
:1089B000D03002F033FA2000643007F0B1F8201D07
:1089C000FFF78CFD200010BD2CA302001423F0B58E
:1089D000040095B0192200931821043002F0F6FB30
:1089E000230027006433B43713211800119307F0D4
:1089F000A3F838000EF0C9FB2300B83300221E2173
:108A0000180010930EF076F82000D03002F026FA0D
:108A10002300EC334A4A06211800129301F0D6FED7
:108A200020000026012365301A0000961121FF3036
:108A300001F0DEF920008D300096012302221A2178
:108A4000FF3001F0D5F925002000C535B530FF35E0
:108A50001A2302220121FF3002F0BEFA10990423EA
:108A60003A22280000F0BAFF84239B00E3181393F6
:108A700005230193183300932A003B0010991398A3
:108A800001F0DAFB96239B00E0182A00129B139951
:108A900001F0A2FD99239B00E01839001C2202F08E
:108AA000C3FC9F239B00E01819230F93013B0E93F7
:108AB000013B0D93013B0C93013B0B93013B0A934C
:108AC000013B0993013B0893013B0793013B06934C
:108AD000013B0593013B0493013B0393013B02934C
:108AE000013B0193013B082200930721013B0EF05B
:108AF00009F8EB239B00E018390003F03BF8F3235F
:108B00009B00E0181D2102F0ADFAFD239B00E6500A
:108B100011982670032110F054FD2300220020003C
:108B200008499C33A0321C6011605660064A8030B0
:108B30005A610221012207F0E1FB200015B0F0BDCF
:108B400038A10200875E0200735E02000123F0B5C7
:108B5000067889B004001E407BD1FD20800500F01E
:108B6000E1FC2300D0331800029300F0B5FA00F0C6
:108B7000A9F9282000F00EFD050010300DF0ECFBE7
:108B80004F4B6E802B80182000F004FD07004D4BEA
:108B900010C703901022310038000693079611F099
:108BA0005EF9082206A9380011F03EF9464B039AF7
:108BB000290053611223AA60EE60AB802E626E62C0
:108BC000029802F0C1F8002805D028000DF0EBFA59
:108BD000280000F0FFFC0123227864201343237057
:108BE00000F096FB002527006537FF3738000DF0B1
:108BF0005DFD002808D020008D30FF300DF056FDBF
:108C0000002801D0092D26DDFD2630493048B60068
:108C100000F05EFCA559002D1BD100F067F80100A3
:108C200004A800F0C3FD05A80DF0A0F9EB239B00FC
:108C3000E01805AA029B04A9009502F0EFFF05A821
:108C40000DF0FBFA04A80DF0F8FAED239B00E358B1
:108C5000A35109B0F0BD6420013500F059FB0A2D85
:108C6000C1D1FD2619491A48B60000F031FCA359BC
:108C7000002B1CD100F03AF8010004A800F096FD8A
:108C800005A80DF073F9EB200123800005AA04A9C3
:108C900000932018029B02F0C1FF05A80DF0CDFA49
:108CA00004A80DF0CAFAED239B00E358A351EB236F
:108CB00021009B003A00EC31E01803F055F992E7EF
:108CC000FD030000FB5E0200BB5E020000200020EE
:108CD000001C0020BFF34F8F024A034BDA60BFF342
:108CE0004F8FFEE70400FA0500ED00E0F0B58DB00F
:108CF00005AF19221549380011F096F80022144BDF
:108D000005245A7180225205566E012225000194D5
:108D1000029203930199300007F030FF0800029996
:108D200007F0A6FE019B03996B430193029B361A41
:108D30006B430293631E2C1B6C433C19225C1C1E6C
:108D4000CA54E7D108000DB0F0BDC0464DAE0200D8
:108D5000762A0020F0B595B01822002106000EA852
:108D600011F07DF813210EA810F07DFD03210EA84F
:108D700010F048FE4C4B1B68002B00D10133DBB2D6
:108D800002934A4A0123002109A807F01FF9484B22
:108D90009E4200D9002672B6464B1022002105A83B
:108DA0001D6811F05CF8444B6421300005930524E4
:108DB00007F0E8FE60435030281806900A21300082
:108DC00007F0E0FE0A2107F0C3FF61435031691844
:108DD000079130000A2107F0BBFF80236143002484
:108DE000503169189B0108910093029B002B59D0C8
:108DF000002500232E1F019305AB9B190393032C21
:108E000003D1802300249B01009305AB2B4A5859C2
:108E100063000133D3180022110010265F1E3F7833
:108E20003E4137001E78865D3E4202D001279740C2
:108E3000394301320633092AEFD1C943204B0901D6
:108E40001940039B1B68984229D1019B312B26DCDA
:108E5000002109A810F0CCFDFA23139A0F99DB002A
:108E6000106801421ED0013B002BF9D1009B013458
:108E70005B000093019BE4B201330193FA23019A52
:108E80005B009A42BBD10435102DB2D1064B1B6852
:108E9000002BAAD0029B013BDBB20293A5E7009B0B
:108EA0001943D6E7FFF716FF54260020F0FF000015
:108EB000E7030000042000209CAE020066AE020022
:108EC000F01F0000F8B50023124C23600DF06FF87E
:108ED000002808D0042120000DF065F8002801D0FA
:108EE0000D4B2360F8BD0122A12704250B4B0C4933
:108EF0001A602268FF0048604E68002EFCD0DE59E0
:108F00001202013D3243002DF5D1226001225A6048
:108F1000E8E7C04650260020ED5EBC0B00D00040C4
:108F2000FCD00040F0B585B01F000AAB1B880600DE
:108F3000029115000393002F1CD0282000F02AFB7B
:108F40006B4604001989039BAAB200933B000DF005
:108F500013F9336821005B683000984700280AD075
:108F6000002C05D020000DF01EF9200000F032FB8F
:108F7000024800E0024805B0F0BDC04616FCFFFF05
:108F800017FCFFFF0B4B70B51C68002C10D0656DF3
:108F900000F0C8FBA36C002901D1834206D8200051
:108FA0000DF038F8044920000DF022F82C00ECE711
:108FB00070BDC0465C2600207C260020F0B506006F
:108FC00093B007932A4B04901C682A4B05911F68A5
:108FD000069285B2360C002F47D000230293002C56
:108FE0002FD0636D244803934823E3181A88A36C99
:108FF0001B0C99B2854214D12048824211D1002B1A
:1090000001D0B1420BD1029B002B08D120000DF002
:1090100001F81B4920000CF0EBFF01230293039C95
:10902000DDE7002A01D09542F9D1002B01D0B142F1
:10903000F5D120000CF0EEFF114920000CF0D8FF14
:10904000EDE7104BEB18012B0FD9102332000093E2
:1090500029000D4B08A80DF08FF83B6808A99B6804
:109060003800984708A80DF09EF813B0F0BDC04630
:109070008826002058260020FE030000FF03000081
:109080007C26002002FCFFFFBD8F010070B572B688
:109090000B4B1C68002C08D020000CF0BBFF0023F9
:1090A000E364084B2000E36370BD62B65C2000F00F
:1090B00071FA050021005C2210F0D1FE2C00EEE7D1
:1090C0008026002000400020024B18780123184021
:1090D0007047C0467C2A0020F7B50600FFF7F4FF72
:1090E000051E33D11A4C2660FFF7D0FF194B1A49E1
:1090F00018600CF07DFFFFF7C9FF184B1860184B84
:109100004363184B8363206800280ED0C027164E97
:109110002A00330015490097FFF704FF009733003A
:109120002A0013492068FFF7FDFE0C2000F032FAF8
:109130000023838083710F4B03600F4B836000F02B
:1091400009FB01230D4A11780B431370F7BDC0468C
:10915000582600208C2600207C2600208426002013
:10916000FC3F0020DB600200BD8F0100FF03000018
:10917000FE03000058A10200858F01007C2A002018
:10918000F7B506000D0017000193002802D1002456
:109190002000FEBD0029FAD0FFF778FF041EF6D0AC
:1091A000074B019A4363066045608760054B002AC0
:1091B00000D0054BA363054920000CF019FFE7E739
:1091C000FC3F0020A5600200C36002007C26002056
:1091D000024B1868434258417047C0467C26002025
:1091E000002310B504499C006258002A01D00133C5
:1091F000F9E76050100010BD64260020002310B570
:10920000044A99008C58844201D00133F9E70020C8
:10921000885010BD6426002010B50024074BE0588C
:10922000002802D003685B6898470434182CF5D1F5
:10923000034B1B68002B00D120BF10BD642600200B
:109240007C260020F8B5FFF73FFF00281BD02A4DF1
:109250002C68E36CDA0717D502263343E364042352
:10926000264F3868C26C1343C364636BC3630CF04E
:10927000F7FE3868416C03F082FA2868C36C334209
:1092800001D003F0B6FAF8BD1D4F1E4E3A68002A11
:1092900002D132682A6007E0216DB942FAD1616DCE
:1092A000002900D1110029602A6831688A4208D15A
:1092B0001B0706D52C60FFF7AFFF3B68002BFAD0E9
:1092C0002B6029688C42DED0336899420BD10E4B5B
:1092D0004B630E4B8B6320000CF0C2FE2968626C5E
:1092E0004B6C200004E09C42F5D1002210004B6C36
:1092F00003F004FAC7E7C0468C2600206026002051
:109300007C26002084260020FC3F0020DB60020039
:1093100070B50500FFF7D8FE002803D1280010F033
:1093200077FA70BD0C4B1C68E36CDB0706D5FFF7C2
:10933000ADFE0A4B1860002800D0040000F0F2F9DE
:109340002D18A56420000CF065FE054920000CF0E6
:109350004FFEFFF777FFE4E78C2600206026002011
:109360005C260020F0B51E4B1E4F1C683B6885B084
:1093700006000391002B30D0FFF7A6FE00282CD06A
:10938000E36CDB070ED5FFF781FE174B051E186057
:1093900008D00CF03FFE154928000CF029FE2C00E7
:1093A000FFF750FF039B20001B043343A3640CF022
:1093B00031FE20000E490CF01BFE0E4B0020F3186E
:1093C000012B08D9C0230093039A0B4B3100386856
:1093D000FFF7A8FD002005B0F0BD0848FBE7C04638
:1093E0008C26002058260020602600207C260020A5
:1093F0008826002002FCFFFFBD8F010016FCFFFF46
:1094000010B5FFF761FE002809D0054C20680CF06C
:1094100001FE044920680CF0EBFDFFF713FF10BDBF
:109420008C26002080260020F7B507000D000028BC
:109430002ED0FFF749FE00282CD00724164E3068A6
:10944000C36C1C4007D0154A290038000CF0F9FD08
:1094500000242000FEBD03F0B4F902213268D36C71
:109460001940019103D003218B43D364F1E7012418
:109470002343D3642800B8473268D36C1900A14352
:10948000D164019C5B07E4D528000CF012FEE0E7F4
:10949000034CDEE7034CDCE78C260020B3600200BF
:1094A00017FCFFFF16FCFFFF020010B5014B12CBAB
:1094B00012C210BD90260020034B1A68034B1A609D
:1094C0007E225A607047C04604200020902600206B
:1094D00070B5104D2B78022B18D0814218D90B1A79
:1094E000072B15D90C00032304431C4010D172B67E
:1094F0002A78094BD200D050981841600CF0F3FD47
:109500002B7801332B7062B6200070BD0348FCE756
:109510000348FAE77D2A00209826002013FCFFFF6D
:1095200017FCFFFF70B50021041C07F071FC002838
:1095300023D1FE21201C890507F074FC00281CD1D2
:1095400004300BF0D5FE05000F48401B08F024FC4A
:10955000211C08F0F5F807F099FC03239843040058
:1095600028000BF0CFFE20000BF0C2FE002806D131
:10957000203C002CF7D1054870BD0548FCE70119D7
:10958000FFF7A6FF0020F7E70038002013FCFFFFDD
:1095900017FCFFFF70B5060000250C4B1B789D42A1
:1095A00009DA0B49EB00C91830000CF0A4FD041EC9
:1095B00009D10135F1E730000BF09AFE041E02D10B
:1095C0001420FFF7C7FB200070BDC0467D2A002095
:1095D0009826002070B5002813D00D4B0D491C783B
:1095E0000023A34210DADA005558A8420AD98A1893
:1095F0005268904206D28023043802681B06134347
:10960000036070BD0133ECE70BF07CFEF9E7C04668
:109610007D2A00209826002070B5051E14DD0B4E13
:109620000B4C3368002B02D0206810F048F8FA2168
:1096300020680024074B89008361C4626943356058
:1096400010F045F8200070BD0348FCE7A826002074
:10965000D82600200197010017FCFFFFF8B5114F35
:1096600006003D68002D0AD13020FFF793FF04006B
:1096700006F086FA0C4BA5612360E5623C600B4D59
:109680002B68002B09D11020FFF784FF04000FF096
:10969000F2FF20002C600FF0C8FF3000FFF7BCFF86
:1096A000F8BDC046D8260020E0A60200D42600203F
:1096B000014B18687047C046A826002070B50D4CB5
:1096C0002368002B03D00C4B1B68002B02D1062013
:1096D000FFF7C4FF20680FF0BFFF02000749C31760
:1096E0000D684E685219734120680A604B600FF094
:1096F000B9FF70BDD4260020D826002028220020E3
:1097000010B5FFF7DBFF0024054BE058002802D01E
:1097100003681B6898470434282CF5D110BDC04657
:10972000AC26002010B5FFF7C9FFFA22034B9200C8
:1097300018685968002307F089FB10BD2822002013
:1097400010B5FFF7BBFF024B1868596810BDC04643
:10975000282200200B4B10B51B680400002B03D0FF
:10976000094B1B68002B02D10620FFF777FF00236F
:10977000064A99008858002801D00133F9E78C5037
:1097800010BDC046D4260020D8260020AC260020DC
:10979000002310B5044A99008C58844201D001334B
:1097A000F9E70020885010BDAC26002010B5040059
:1097B000002902D00B78002B03D1034B236020003B
:1097C00010BD0CF041FDFAE768A10200F8B50400F5
:1097D0000E00150000290AD00B78002B07D0002AB4
:1097E00005D0080097B210F082FB874203D90B4BDB
:1097F00023602000F8BD681DFFF7CCFE20600CF050
:1098000002FE20682A0047803100043010F00CFB73
:1098100023685D1900232B71EBE7C04668A10200A5
:10982000014B03607047C04668A1020010B50548AF
:10983000054C20600CF0EAFD044A0549200010F0B8
:109840008DF910BD68A10200DC2600200020002058
:109850003B620200084B73B51C680500002C0AD05F
:109860000100266808310822684610F0DDFA0CCDA8
:1098700031682000884773BDE026002010B5054CF4
:10988000012120000CF0B6FD034A0449200010F02D
:1098900065F910BDE426002000200020B563020019
:1098A0000388074A10B50120934208D0834202D0B2
:1098B0000020DB0703D41E20FFF74CFA002010BD68
:1098C000FFFF000010B50400034B08330360FFF7EF
:1098D00095FC200010BDC046B0A10200FA2170B571
:1098E00043898900594338230400264AD518D058A3
:1098F000884204D3D518083B18000830F7D1224B12
:10990000227B1E1D082A05DC042A03DC9E1C022A79
:1099100000DC1E00FA212868890007F0A9F83378D6
:109920006081237300222A2120000CF093FD00287F
:1099300001D0164870BD10222B2120000CF08AFDAA
:109940000028F6D101222D2120000CF083FD0028F3
:10995000EFD101222E2120000CF07CFD0028E8D15F
:1099600072780E2120000CF075FD0028E1D1012253
:109970002B792A211A4320000CF06CFD0028D9D045
:10998000D7E7C04670A102007CB002000EFCFFFFCA
:109990007FB515000F226A4404001E001170002DCF
:1099A00016D0002B14DD012301890093006B01F018
:1099B00047F9002802D0074804B070BD0090218903
:1099C00033002A00206B01F0F1F80028F4D0F2E710
:1099D0000148F1E70EFCFFFF17FCFFFFF7B506009B
:1099E00000250193204B1436083304000360858062
:1099F0008571C581058245820F00009229001822D9
:109A0000300010F02CFA1C2130000FF02CFF6B46B8
:109A10009B880221A3806B461B882200238114238C
:109A2000638123003833A571217327633E321D7093
:109A30005D706587A587137895728B43F1310B4074
:109A40001370230095810135221DD5870833A21D8F
:109A5000D5872000DD87FFF741FF002802D1A379D9
:109A60001D43A5712000FEBDB0A1020030B5042544
:109A7000837987B004002B4204D1FFF7B1FBA379AF
:109A80001D43A571A36AA2691B6800251A4222D052
:109A9000280007B030BD6B460222042069469A5662
:109AA0001856237BD2005A43228202220978C00032
:109AB00049B2C900594343436382A379E181934387
:109AC000A37120000CF0D4FC0123A1881A0002A885
:109AD0000CF04DFCDCE706236A4601212000FFF76D
:109AE00057FF051ED7D0014DD2E7C0460EFCFFFF41
:109AF000F8B50400FFF7BAFF0E22A35E7B4F5B426E
:109B0000BB4205DA23003E331B789B0700D5C6E035
:109B10002000FFF7ABFF0E22A35EC8225B4252007B
:109B20000025934205DD23003E331B789B0700D4BC
:109B3000B5E02000FFF79AFF1022A35E5B42BB4214
:109B400005DA23003E331B785B0700D5B5E0200023
:109B5000FFF78CFF1022A35EC8225B4252009342A3
:109B600005DD23003E331B785B0700D4A5E026000B
:109B70002000FFF77BFF1222A35E4836BB4205DAC6
:109B800023003E331B781B0700D5A3E02000FFF71E
:109B90006DFFC8231221625E5B009A4205DD23003F
:109BA0003E331B781B0700D494E0002D0BD0337894
:109BB000032B08DC0133DBB23370012B5BD12300B4
:109BC00000224A331A803278002A14D0210027005C
:109BD00001254A310B883E3701339BB20B80387820
:109BE000AC46054055D01D2B05D96346984300234C
:109BF00038700B80337020000CF0A6FC3C4A072321
:109C0000904244DD2000FFF731FF0E23E25E394E23
:109C100052420323B2423ADBC8252000FFF726FF59
:109C20000E23E25EAD0052420423AA422FDC200044
:109C3000FFF71CFF1023E25E02235242B24226DBF2
:109C40002000FFF713FF1023E25E01235242AA42D5
:109C50001DDC2000FFF70AFF1223E25E0523B2425B
:109C600015DB2000FFF702FF1223E25E0623AA4263
:109C70000DDC00230BE0042BA5D122003E3211782D
:109C8000033B0B43137000234A3423800B3318002B
:109C9000F8BD092BAFD9013A0D803270ABE7012531
:109CA000210028003E310B785A0890430200022020
:109CB000AA40834313430B703BE701252100280092
:109CC0003E310B789A08904382000420834313436B
:109CD0000B704CE7210001223E310B78D8088243FB
:109CE0000820D200834313430B7060E770FEFFFF30
:109CF000FF700200E0FCFFFF70B5C369C2681B681B
:109D00008AB00400451D1A4207D0EB7F002B09D012
:109D1000013B06E03300032239E0EB7F0B2B01DC33
:109D20000133EB77EB7F082B0DDD0122A379134282
:109D300009D11343A371A188130006A80CF017FBE7
:109D4000FFF7F0FC2062EB7F012B23DC0123A279DB
:109D50001A421FD00025A188A571022202A80CF08A
:109D600006FBA31DDE7F012E14D1FFF7DBFC2B00C9
:109D7000226A801A994100900191019BA188AB420F
:109D800003D1134B009A9A42C4D90123042206A896
:109D90000CF0EDFA0322A3791340012B0AD1FFF74F
:109DA000C1FC0023226A801A9941994204D1094BCF
:109DB000984201D80AB070BD0223A279A18813434A
:109DC000A3710522012306A80CF0D1FAF2E7C046E0
:109DD000E7030000DB05000010B50400034B083367
:109DE0000360FFF7D5FC200010BDC046C8A10200EB
:109DF000F0B5070000250E0085B002930AAB1B7872
:109E000008370393104B04000833036001928580E8
:109E1000857129001822380010F021F8039A3100CA
:109E200038000FF025FD6B466A469B88127AA380A6
:109E3000A31DE671DA77631D25622000DD77FFF749
:109E400089FC200005B0F0BDC8A1020010B50400D7
:109E5000034B08330360FFF7D1F9200010BDC04663
:109E600038A202007FB515000F226A4404001E00CC
:109E70001170002D16D0002B14DD012301890093F1
:109E8000C06B00F0DDFE002802D0074804B070BDB2
:109E90000090218933002A00E06B00F087FE002843
:109EA000F4D0F2E70148F1E70EFCFFFF17FCFFFFDB
:109EB000002330B585B003AC217001890093050003
:109EC00001332200C06B00F0BBFE002802D00A481C
:109ED00005B030BD207060702989009002232200F7
:109EE000E86B00F063FE0028F1D1237860781B0254
:109EF000184300B2ECE7C0460EFCFFFF13B56B46FB
:109F0000DC1D0023220023700133FFF7ABFF002884
:109F100001D1207816BD0148FCE7C0460EFCFFFFCA
:109F2000D0B504000CF0EAFBE268A369981A09F0C6
:109F300087FC06000F002369E069C01A09F080FC65
:109F400032003B0009F0E0FF0022104B08F0AEFEAB
:109F50000F4A104B08F076FA09F006FD0021041CA8
:109F600006F04CFF002804D0201C0B4907F066F8CF
:109F7000041C201C09F0A6FC02000B00002007496D
:109F800009F014F909F028FCD0BDC04600806640F5
:109F9000EA2E4454FB2109400000B443008076407F
:109FA000F0B5050085B0006C0CF06BFB061C286C4E
:109FB0000CF05EFB0221071C28000CF0D0FB0221F4
:109FC000039028000CF0DDFB07F096FE0221041C34
:109FD00028000CF0E8FB07F08FFE051C301C09F090
:109FE00055FF0290301C09F013FF0190381C09F056
:109FF0004DFF061C381C09F00BFF071C039807F0E7
:10A000007BFE391C07F09CFB311C071C201C07F051
:10A0100097FB029907F094FB011C381C07F00EF81F
:10A02000311C071C281C07F08BFB019907F088FBEB
:10A03000011C381C07F002F80299061C281C07F0C6
:10A040007FFB0199051C201C07F07AFB011C281CD2
:10A0500007F096FC311C09F05BFF0D4907F070FB1F
:10A0600009F030FC0B4A0C4B08F0ECF909F07CFCD1
:10A070000021041C06F0C2FE002804D0201C044964
:10A0800006F0DCFF041C201C07F016FE05B0F0BD36
:10A090000000B443EA2E4454FB21194070B500225D
:10A0A000102104000CF01CFB1B4D00282DD10326B1
:10A0B00008212000FFF722FFA84226D0304226D1F7
:10A0C000FA216389890059435023144AD518D0587E
:10A0D000884204D3D518083B18000830F7D1FA217C
:10A0E0002868890006F0C4FCA022608111212000AC
:10A0F0000CF0F6FA002808D101222B7910211A431E
:10A1000020000CF0EDFA002800D0034870BD642058
:10A11000FFF7FEF8CCE7C0460EFCFFFFE0A102000F
:10A12000F0B50426847985B00500344015D10227A6
:10A130000CF0E4FAAB790622BB433343AB71A98838
:10A14000012368460CF013F9AB7920001A00B243E2
:10A15000AA713B4202D1024800E0024805B0F0BDBE
:10A1600014FCFFFF15FCFFFF10B5837904005A07AC
:10A170000DD49B0701D4FFF7D3FF236C2000002BE5
:10A1800002D0FFF70DFF10BDFFF7CAFEFBE7014845
:10A19000F9E7C04615FCFFFF70B5466C86B001AC10
:10A1A000050001916260A360002E0CD00B4905A848
:10A1B000FFF7FCFA0C23220005A930000DF020F86F
:10A1C00005A80CF03AF82B000C3307CC07C3022388
:10A1D000AA791343AB7106B070BDC04682B00200CD
:10A1E000642330B504000281438185B08180FFF78C
:10A1F00055FF0222A379606C9343A371002813D00A
:10A200000C490CF0C8FF051E0ED001000C221031C5
:10A2100001A80FF009FE20000199029A039BFFF7A5
:10A22000BBFF2800FFF7D6F90123A2791343A371DE
:10A2300005B030BD82B00200F7B5009308AB1B88B3
:10A240000400019309AB1D8800230F0016000D4A7E
:10A250008380083283710260C3600361436183615C
:10A26000C36103621D2124300CF02DFA009BE763CB
:10A270002664290020006364019AFFF7B1FF2000E3
:10A28000FEBDC04638A2020082B0F0B50400A3B003
:10A290006420299328920FF0BBFA04220C2107A80E
:10A2A00002F008FB2422C74919A80FF0BDFD0522C2
:10A2B00004A811000EF061F8C34905A802F0A4FB40
:10A2C000A06800F07BFBA568C04916A8FFF76EFAEE
:10A2D000782216A9280000F00FFC16A80BF0ADFF9D
:10A2E0006E256420013D0FF093FA002DF9D1A0688E
:10A2F00000F064FBA0680CF0F8FB012160680CF032
:10A3000037F90121070060680CF045F906000A20C2
:10A310000FF07EFA0022AE4B02929F4210DB013218
:10A3200002923A00C8320BDBC8220421920002914B
:10A33000974205DC03220292C82F01DC013A029207
:10A3400000279E420CDB33000137C83308DBC823EB
:10A3500003379B009E4203DC013FC82E00DC013F17
:10A3600004A80EF001F8002619AB9A19917800297B
:10A3700005D0995D5278FF2304A802F0DBFA03367A
:10A38000242EF1D16B463AB20821595E04A8FF236E
:10A3900002F0D0FA0023A068009374301A0004A9D8
:10A3A0000DF0F2FF19AE3378029A934234D17378EC
:10A3B000BB4231D1B3780393002B2DD11900206813
:10A3C0000CF0CDF907F098FC039A031C290007A8AC
:10A3D0000DF08BF9039920680CF0D3F907F08CFC91
:10A3E0000122031C290007A80DF07FF903992068BA
:10A3F0000CF0D9F907F080FC2900031C022207A801
:10A400000DF073F9FE2329009B05032207A80DF028
:10A410006CF901230135B370033622ABB342C2D1CC
:10A4200064200FF0F5F90B2D00DC66E707A80DF0AE
:10A4300048F9012201000AA802F03CFA002507A809
:10A440000DF03FF985423CDA2900002207A80DF003
:10A450003AF90022061C290007A80DF034F9011C66
:10A46000301C07F06DF92900061C012207A80DF029
:10A470002AF90122071C290007A80DF024F9011C64
:10A48000381C07F05DF9311C06F0D8FD2900061CC8
:10A49000022207A80DF017F902222900071C07A8BD
:10A4A0000DF011F9011C381C07F04AF9311C06F0B7
:10A4B000C5FD2900031C00220AA80DF016F901357C
:10A4C000BDE707AA1100012316A80DF028F916A967
:10A4D0000DA80DF082F916A80DF018F90AAA07A91F
:10A4E00010A801230DF01BF9002310AA0DA913A831
:10A4F0000DF015F9002213A811000DF0E4F8002268
:10A50000061C012113A80DF0DEF80022051C022113
:10A5100013A80DF0D8F8FC21071C8905301C07F0A2
:10A520000FF907F0C9FBFC21060016908905281CCD
:10A5300007F006F907F0C0FBFC210500179089051C
:10A54000381C07F0FDF807F0B7FB2A0003003100C4
:10A5500018902068FFF720FEA0680CF0C6FA05A945
:10A5600006A8A5680DF0F8FE00221A4B009206A975
:10A5700001932800130000F063FA06A80DF0DFFE37
:10A58000FA2080000FF044F9A0680CF0AEFA13A88E
:10A590000DF0BCF810A80DF0B9F80DA80DF0B6F844
:10A5A0000AA80DF0B3F805A80DF0C9FE04A80DF037
:10A5B000C6FE07A80DF0AAF823B0F0BC08BC02B094
:10A5C0001847C0468DB00200B1B00200F6B00200DC
:10A5D000E0FCFFFFDC050000F0B58360204B85B098
:10A5E0001F68050001604260002F36D02820FEF76A
:10A5F000D1FF040010300BF0AFFE052323800133A0
:10A6000063801820FEF7C6FF164B06000293002356
:10A6100020C6190001901022300003930FF01FFC98
:10A62000082202A930000FF0FFFB0F4B019A210016
:10A6300053610023E360C233A3800023A26023623E
:10A6400063623B6838005B689847002805D02000AB
:10A650000BF0A9FD2000FEF7BDFF280005B0F0BDFE
:10A66000E026002089A20100BF670200F0B50400C7
:10A6700085B0637A9C46002B04D120000CF0C9F809
:10A6800005B0F0BDA37A266F01931023019AF3560B
:10A6900000259B1801229A402900F3680292039337
:10A6A000039B9D4231DAB368019A6B439B18726930
:10A6B0005B00E77AD3181A785878E379012F14D120
:10A6C0005F1E3F1A10003A005B004343606F821820
:10A6D000D3189B79634500DD6346627B1A4202D042
:10A6E0000123AB4019430135DAE7022F05D15F1E84
:10A6F000BA1A277A013F381AE6E7032FE4D1277AFE
:10A70000013FBF1A02003800DEE71123C943F356A8
:10A71000606C994023691940029B19430FF068F956
:10A72000A37B072BACDC627B581C520062730B4985
:10A730009A00A073022B03DC88580FF05EF898E7AC
:10A74000074B2000236300236363064B8958E462B0
:10A75000236414300EF0BBFF92E7C04650A2020003
:10A760006DA60100FF67020010B50400044B0360F2
:10A770000EF0A5FF200005F019FA200010BDC0461C
:10A78000E0A6020010B504000E4B08330360FEF78C
:10A79000FFFF200074300DF0D2FD200060300DF07E
:10A7A000CEFD200058300BF048FD200050300BF05B
:10A7B00044FD2000044B14306361FFF7D5FF2000F7
:10A7C00010BDC04670A20200F4A60200F8B5002534
:10A7D0000400324B85800833036085711430160005
:10A7E0000F0005F0CDF920002D4BE5626361256473
:10A7F0005030FFF715F820005830FFF711F820000F
:10A80000603002F091F820000423F25E336826677E
:10A81000590009B274300DF0B0FD3378226FE37146
:10A820007368012623721023E572A572A780256143
:10A83000D356916859188B4204DA3000984001339E
:10A840000543F8E711230120D356D16859188B42EC
:10A8500006DA02009A402669013332432261F6E7A4
:10A860001420FEF797FE226900212A4301230600E7
:10A8700005F0ACFBFF226272220000230125483262
:10A8800066646573A373237320001370A366FEF7D9
:10A8900061FFA37920001D43A571F8BD70A20200DD
:10A8A000F4A60200F0B5437A85B00400002B04D171
:10A8B00020000BF0AEFF05B0F0BD0122837A11003D
:10A8C0009C461023066F0025F3560392634499407B
:10A8D00001912900F3680293029B9D422CDAB36830
:10A8E00072696B4363445B00E77AD3181A7858782F
:10A8F000E379012F10D15F1E3F1A10003A005B0070
:10A900004343606F8218D3189B79002B02D0039BBE
:10A91000AB4019430135DFE7022F05D15F1EBA1A9C
:10A92000277A013F381AEAE7032FE8D1277A013F57
:10A93000BF1A02003800E2E71123C943F356606CE6
:10A94000994023691940019B19430FF051F8667A29
:10A95000B31EDBB2FC2B14D8FEF7AAFE0B4B05008E
:10A96000236300230A4863630A4BFF21E4622364E4
:10A97000704306F007F929004143200014300EF01F
:10A98000A6FE637A012B00DD95E791E713680200CC
:10A99000B6030000FF6702001FB5012381881A007B
:10A9A00068460BF0E4FC012303491A0068460BF0EB
:10A9B000DEFC05B000BDC046FE0300001FB503006D
:10A9C00048331A780400002A0DD000221A7001239F
:10A9D00081881A0068460BF0CAFC012304491A005A
:10A9E00068460BF0C4FC200074300DF0BDFC1FBDA8
:10A9F000FF03000010B548300378002B06D0037821
:10AA0000012B03D0012102480BF043FB10BDC046CF
:10AA1000FF03000010B50121040006200BF039FBF4
:10AA2000064B984208D148342378002B04D0237871
:10AA3000012B01D020BFF7E710BDC04616FCFFFF79
:10AA400073B5079C0500002C0ADB060048363078F9
:10AA5000002807D03078012804D00C4C200076BDA7
:10AA60000B4CFBE76846007E1BB20090280012B238
:10AA700074300DF089FC002CF0D02B004A331C8080
:10AA8000002407234C352C803370E7E712FCFFFFCE
:10AA900017FCFFFFF0B587B00D9C06000F00029277
:10AAA0000393002C20DBFFF7A5FF330048331D780C
:10AAB000EDB2002D1AD1390005A80DF04DFC0C9B0C
:10AAC00001940093029A039B05A93000FFF7B8FF99
:10AAD00005A80DF034FC002C03D03000FFF79AFFDE
:10AAE0002C00200007B0F0BD014CFAE7014CF8E75C
:10AAF00017FCFFFF11FCFFFFF8B50400171E09DD6E
:10AB0000060048363378002B06D03378012B03D06B
:10AB10000C48F8BD0C48FCE72200E3795632013BB3
:10AB2000137023000025200054331D8050300BF09B
:10AB3000E1FB23004A331F8002234C342580280088
:10AB40003370E6E712FCFFFF17FCFFFFF7B50500C7
:10AB50000F00161E18DDFFF74DFF2B0048331C7841
:10AB6000E4B2002C12D1390001A80BF0BBFB32007B
:10AB700001A92800FFF7C0FF01A80BF05EFB280029
:10AB8000FFF748FF2000FEBD0148FCE70148FAE757
:10AB900017FCFFFF11FCFFFFFF2902D841720020C4
:10ABA00070470148FCE7C04617FCFFFFF0B51F00E7
:10ABB00085B00AAB1B780400039300933B000D00A3
:10ABC00016000EF0DDFC002833D0237D082B2DDC91
:10ABD000236800221900FC318A62A021C9005A5062
:10ABE000154905205A500138C046C046C046C046E7
:10ABF000C046C046C046C046C046C046C046C04625
:10AC0000F1D1236801325A50A0220521D200995077
:10AC100005F0A2F9039B3200009329003B002000BD
:10AC20000EF0AEFC237D01332375CCE7034805B05D
:10AC3000F0BD2075FBE7C046FC0F00000EFCFFFFD7
:10AC4000F0B51F0085B00AAB1B7804000393009396
:10AC50003B000D0016000EF07BFC002833D0237D56
:10AC6000082B2DDC236800221900FC318A62A02108
:10AC7000C9005A50154905205A500138C046C046EF
:10AC8000C046C046C046C046C046C046C046C04694
:10AC9000C046C046F1D1236801325A50A022052196
:10ACA000D200995005F058F9039B32000093290017
:10ACB0003B0020000EF04CFC237D01332375CCE7D4
:10ACC000034805B0F0BD2075FBE7C046FC0F00004F
:10ACD0000EFCFFFFF8B50D1E30D000260227C46819
:10ACE000002C28D0AA88A38853403B4204D13A4282
:10ACF00004D1AB883B4219D0646AF1E7A968A06827
:10AD00000CF0CEFC0028F4D02B88002B02D0228837
:10AD10009A42F1D16B88002B02D062889A42EBD123
:10AD2000A288074B01361343A380E5E7A368AA680E
:10AD30009342E1D1E8E72000002E00DC0148F8BD95
:10AD40000080FFFF17FCFFFFF0B5060085B00D1E69
:10AD50005CD00127C468002C22D00221AA880023DD
:10AD60000A4202D0A3885B083B40226829688A42D5
:10AD700007D1002B07D0A968A0680CF091FC00282F
:10AD800005D1646AE7E7A368AA689342F9D1A3886A
:10AD90001AB2002A02DA5B045B0CA3801C480BE0A9
:10ADA000F1682A880F000B1E08D1F56001231949AC
:10ADB00068460BF0DCFA002005B0F0BD1888904220
:10ADC00005DA586A1F0000280ED00300F6E71800C5
:10ADD0003B000488944207D147886C88A74203DA75
:10ADE000446A0300002C0BD199420BD1088882429F
:10ADF00004DB07D14C886888844203DD6962D4E7AC
:10AE00002000E6E7596A69625D62CFE70248D3E74E
:10AE100016FCFFFFFD03000017FCFFFF064B10B5FB
:10AE20001A00040008322C33026043600430FEF73D
:10AE3000E5F9200010BDC04688A2020008B4024B0C
:10AE40009C46043808BC60471DAE010008B4024BA4
:10AE50009C46043808BC60472B6C02000C4A002357
:10AE600011002C32083110B5038183724260C36037
:10AE7000036143614383016004000430FEF7B0F9CD
:10AE8000044B1A68002A00D11C60200010BDC04687
:10AE900088A20200E0260020F7B50E000125C46854
:10AEA0000192002C36D0238832889A4201D0002BA0
:10AEB0002AD1638872889A4201D0002B24D1FEF7F0
:10AEC00003F90123002806D0C022A3881340C03B09
:10AED0005A425341DBB2019A934214D1A7883BB244
:10AEE000002B10DB10223100A0180EF09DFF402334
:10AEF0001F420BD1FEF7E8F8002807D021000648D2
:10AF0000FEF792FA00E00025646ACAE720000BF021
:10AF100095FEF9E72800FEBD3D6C020008B4024B27
:10AF20009C46043808BC6047C56D0200F0B587B088
:10AF300001930EAB1B88060003930D9B0D0000933D
:10AF4000019B02920C9F002B3ED0002F02D1009B50
:10AF5000DB0739D52820FEF71DFB040010300BF06D
:10AF6000FBF96B461B89258063801820FEF712FBD6
:10AF7000049707000500009B10220593019B002108
:10AF800008C738000EF06BFF082204A938000EF045
:10AF90004BFF0E4B02226B610023A5600399E36017
:10AFA0002362636233680A43A2805B682100300039
:10AFB0009847002806D020000BF0F5F82000FEF797
:10AFC00009FB034807B0F0BD0248FBE7FF6D020034
:10AFD00016FCFFFF17FCFFFFF0B50400160000256C
:10AFE0008380164A164B8571026021814681057364
:10AFF000186889B08C46A8421DD0124A0595049263
:10B00000C02202926A4604AB82CB82C26146230010
:10B010002A00FFF78BFF0B4A094B0692C0221868E3
:10B0200002926A4606AB079582CB82C223002A00B1
:10B030003100FFF77BFF200009B0F0BDCCA2020079
:10B04000E0260020296F020030B50024037301239D
:10B05000034D84710560818082734373846030BDC9
:10B06000E4A2020070B5040000250D4B0E00083369
:10B07000858085710360210018300CF00FF82000E6
:10B08000210020300CF02DF8064BA680A571E5714B
:10B090002572E5602561656120001C6070BDC046B9
:10B0A000F4A20200E82600208379DB0702D5C16004
:10B0B000002070470048FCE716FCFFFF8379DB07A0
:10B0C00001D5C06870470148FCE7C04616FCFFFF89
:10B0D00070B545690400002D20D0037A032B1FDCD6
:10B0E000FFF7ECFFA8622C20FEF754FA2C22002177
:10B0F00005000EF0B4FE0023626953622369002B41
:10B1000007D122610020237A65610133237270BD6B
:10B110000B00596A0029FBD15A62F3E70148F6E7B0
:10B120000148F4E717FCFFFF13FCFFFF144B70B559
:10B130005A68144C002A03D000225A600132A260DF
:10B140001A69002A17D0002119618023DB00E35817
:10B150000D4D012B10D1A923DB00E158286849428D
:10B16000FFF7A2FF2868FFF7B3FF2B685A69074B68
:10B17000E2500123A36070BD2868FFF795FFF8E750
:10B18000FC10004000100040E826002004050000EC
:10B1900003000069002809D00221054AD167426AEC
:10B1A0001A611A7A013A1A72024B19607047C04646
:10B1B00004E100E000E100E010B5002903DB024BF0
:10B1C00019600EF0CAFA10BDEC26002070B504001C
:10B1D0001E0004AB1D7804F073FC20000E4B4030C1
:10B1E0002360FEF71DFB230001364C33013522009E
:10B1F0001E701D730023E1214E32A364636513802A
:10B2000053809381D381013B200063644902FFF79F
:10B21000D3FF200070BDC04630A10200F7B58027E3
:10B220007F053D697C690822113C6C4306002100C2
:10B2300068460EF0F9FD104B009A9A4219D000931F
:10B240000023019379693000133969430BF05EFFE5
:10B25000019A009930000BF071FF210030000BF0D3
:10B2600055FF7969AB0813396943220030000BF0B0
:10B2700057FF0198FEBDC046FECA0000F0B50D00A4
:10B28000ABB00D9200213022060012A80B930EF0F5
:10B29000E6FD28000EF02BFE431C0C93102B00DD66
:10B2A000B7E00B9B202B00D9B3E0290030000BF056
:10B2B00072FF071E56D129000C9A12A80EF0B4FD99
:10B2C0000D990B9A16A80EF0AFFD80235B051F6940
:10B2D0005A693000113A7A435D690D92FFF79EFF7B
:10B2E0000D9B30220833002104001EA80F930EF09E
:10B2F000B6FD29001339794330000BF007FF0F9B8F
:10B300000B9300230C930E930C9BA34249DA0B99E9
:10B3100030221EA80EF088FD12A91EA80EF0D5FD41
:10B3200000282DD13D4930002200109111940BF0DE
:10B3300005FF6A460B9B099315AB23CB23C223CB96
:10B3400023C223CB23C23000149B1299139A0BF013
:10B3500003FF01230E930B9B30330B930C9B0133A4
:10B360000C93D1E710300B9A0D990EF04EFD0400AE
:10B370003800FEF72FF9002C9DD120002BB0F0BD36
:10B380006A460B9B099321AB23CB23C223CB23C259
:10B3900023CB23C230001E991F9A209B0BF0DCFEAA
:10B3A000D9E7E5433021ED1725404D430F9B5D194B
:10B3B0000E9B002B1BD1B81E05F05AFB84422AD0ED
:10B3C0001649013430002200109111940BF0B6FEA2
:10B3D0006A46099515AB23CB23C223CB23C223CBCB
:10B3E00023C230001299139A149B0BF0B5FE0D99ED
:10B3F00030000BF08BFE80235B0559690C236343FF
:10B400001339023379430D9A30000BF089FE002482
:10B41000B3E7034CB1E7034CAFE7C046FECA0000F8
:10B4200017FCFFFF13FCFFFF70B50400A280FA2297
:10B43000002308000C49920008312160A37160616B
:10B44000E260A360638209490BF0A5FE051E09D0E6
:10B45000010020001031022212300EF0E5FC28001D
:10B46000FEF7B8F8200070BD0CA3020004B1020082
:10B4700030B50225837987B004002B4204D1FDF753
:10B48000AFFEA3791D43A57120000BF0CAFE002872
:10B490001CD06B46DD1C28000BF0BAFE2B78002B6D
:10B4A00017D001A80BF0B2FE0321019AD3170B406D
:10B4B0009B189B102382FEF735F9E368A1881818C2
:10B4C0000123A0601A0002A80AF051FF002007B073
:10B4D00030BD0122064B1A60064A51680029FCD093
:10B4E00000215160044A1268019201225A60DBE790
:10B4F00000C00040FCC0004008C50040022802D146
:10B500000122014B1A7070477E2A002070B5064C4C
:10B5100005002378002B04D1044801F089FC0123A5
:10B520002370280070BDC0467F2A0020FDB40100B2
:10B5300070B50C000AF03BFD002810D00023144D1C
:10B54000A40A2B7020000BF080FE002803D00A20F4
:10B550000EF05EF9F6E72B78002BFCD070BD0221CF
:10B560000C4B0D4A99508021C90008005D58002DF0
:10B57000FCD0A121C9005C5019580029FCD0002141
:10B5800099508021C9005A58002AFCD0E6E7C046ED
:10B590007E2A002000E0014004050000F8B50C0000
:10B5A00015001E000AF003FD002811D00023174FDC
:10B5B0003B703200290020000BF045FE002803D02C
:10B5C0000A200EF025F9F4E73B78002BFCD0F8BDFB
:10B5D00001210F480F4B844619508021C9005A5849
:10B5E000002AFCD080270022FF00964207DD910050
:10B5F00068586050D9590029FCD00132F5E7002283
:10B6000061465A50DA59002AFCD0E0E77E2A002031
:10B610000405000000E0014010B50400054B0833AC
:10B6200003601C300AF009FE200018300AF005FE05
:10B63000200010BD24A30200FF23F0B52B4D8DB0D8
:10B640002B700023040069460088009303F08AFAF7
:10B65000002802D16B469B782B70254E3368DB683F
:10B66000002B07D1002320881A0019000BF0F1FDF0
:10B670000DB0F0BD2B78032BF4DC1E4901A8FEF7BA
:10B6800095F8336801A9DE6804A80AF02BFE04A926
:10B6900030000BF0AFFD060004A80AF0CEFD371E07
:10B6A0001ED031002022103104A80EF0BDFB300066
:10B6B000FDF790FF297804ABC9005918082202A8A9
:10B6C0000EF0B2FB20880123082202A90BF0C1FD75
:10B6D0000127002804D12088074A0C210BF0B7FD70
:10B6E00001A80AF0AAFD002FC2D1BBE7F421002077
:10B6F000FC26002014B10200FFFF0000F0B58379A2
:10B7000091B004005B071BD5FEF70CF800232269FB
:10B71000801A9941994203D1F423FF3398420FD9FB
:10B72000A068002808D0364B1D8801F07BFA03681A
:10B7300015221B6A290098470422A3799343A37119
:10B74000A3799B0759D52F4D2B68DB68002B50D070
:10B750002D4B1B78032B4CDC294B2C491B8804A850
:10B760000193FEF723F82B6804A9DE6808A80AF005
:10B77000B9FD08A930000BF03DFD070008A80AF04C
:10B780005CFD02AB9E1D08233200338006A9073BF7
:10B7900001980BF060FD002F08D0390020221031F5
:10B7A00008A80EF041FB3800FDF714FF164B328855
:10B7B0001B7806A9DE0008AB9E1930000EF025FBB1
:10B7C000002813D0082206A930000EF02DFB2B68AC
:10B7D00004A9DD6805A80AF085FD202308AA05A9AB
:10B7E00028000BF00DFD05A80AF027FD04A80AF0BB
:10B7F00024FD0222A3799343A37111B0F0BDC0468A
:10B80000242A0020FC260020F421002014B102008C
:10B81000F7B5040000250192C77FBD4251DA6619D1
:10B820007078884218D1152927D801228A402748E4
:10B83000024222D0F91801201F291DDCE119371816
:10B84000B9420ED800218B420FDD019A7018575C67
:10B8500001318770C9B2F6E7605D2D180135EDB290
:10B86000DBE70878C8540139EAE7625D9A18625547
:10B87000E27F9B18E3770020FEBD655D013DEDB2E0
:10B88000AB4209D10023AB42F5DA019AF118D05C42
:10B8900001338870DBB2F6E7DF197F1B01201F2F11
:10B8A000EADC0227A81C7F4236187F1BE07F2218A3
:10B8B000964203D23078F0550136F7E7451B023D3A
:10B8C000E577019A20000BF010FDD5E7FC00200081
:10B8D000F0B585B001930AAB1E880BAB1B78451CF5
:10B8E00002930EAB1B78040003930B7817000370D0
:10B8F0004B8A10224382013128000EF095FA6B46E4
:10B900009B88268363836B461B7B002623776B46CD
:10B9100001221B7A6761E683EB77A31CDA77242187
:10B920000C9B0C2563622300200004AA5218127895
:10B9300028331A705E709E702A0031002C300EF091
:10B940008EFA2000064BE663A3632A0031004030E4
:10B950000EF085FA2000034B2665E36405B0F0BDC8
:10B960006D7202005F72020070B50D0001F05AF9AD
:10B9700004000368002D09D15B699847FA20800014
:10B980006843074905F074F8E08070BD9B689847EC
:10B990008542F3DA236820009B6898470500EDE7AD
:10B9A00071020000F0B507001600A1B002C7040044
:10B9B000684918A81D000BF0CAFC301E01D00EF01B
:10B9C00096FA01220492002283B20392029202327A
:10B9D00001920093320018A93800FFF779FF230085
:10B9E0005D49583318A807930BF0B1FC281E01D00D
:10B9F0000EF07DFA01220492002283B20392029299
:10BA00000232019200932A0018A90798FFF760FFFD
:10BA100023005249AC3318A808930BF098FC2698E1
:10BA2000002801D00EF063FA01220492002283B2B2
:10BA300003920292023201920093269A18A9089862
:10BA4000FFF746FF631CFF33454918A809930BF025
:10BA50007EFC2798002801D00EF049FA01220492BA
:10BA6000002283B203920292601C02320192009380
:10BA7000279A18A9FF30FFF72BFF23005533FF3318
:10BA8000384918A809930BF062FC2898002801D0C7
:10BA90000EF02DFA01220492002283B20392029248
:10BAA000023201920093289A18A90998FFF710FF13
:10BAB0002300A933FF332C4918A80A930BF047FC45
:10BAC0002998002801D00EF012FA012204920022D7
:10BAD00083B20392029218AD023201920093299A26
:10BAE00029000A98FFF7F4FE204B1B780B93002BDC
:10BAF0002DD1079B12971393089B0DAF1493631CD2
:10BB0000FF331593099B1A4916930A9B3800179324
:10BB10000BF01DFC1D2149203B7810222B707B8AE5
:10BB200012AE6B8206ABC918C0180EF07DF9062361
:10BB30002B756B469B8D2068AB83AE6101F082F85C
:10BB4000036829001B6898470122084B1A702000DF
:10BB500021B0F0BD292A0000242A0000252A000077
:10BB6000272A0000262A0000282A0000802A002018
:10BB70000A18000070B5002504000A4B85800833C0
:10BB800085710360C1601830FDF74AFE20001C304B
:10BB9000FDF746FE044BA5601C6001236561200093
:10BBA000A37170BD24A30200FC260020FA2130B549
:10BBB00085B0050001230222890068460AF0D7FB00
:10BBC000074C2068002809D00BF0FAFB2988054BA8
:10BBD00022681980022391790B43937105B030BD1F
:10BBE000FC260020242A002010B50C0007290AD8C2
:10BBF000806801F017F8064B195703685B6C98478B
:10BC0000002802D110BD0348FCE70348FAE7C0460C
:10BC10000CB1020017FCFFFF16FCFFFFF0B5A54CAE
:10BC20000D00A544040007939AAB1B78A24909A80C
:10BC300004930692FDF7BAFD200029001C300AF09B
:10BC400059FBC020800001F0E9F80820FDF7A2FCB4
:10BC50000700002100F0AEFF15AD0021A7600C2207
:10BC60000EA80EF0FCF82B000EAA43CA43C3934B58
:10BC70002900EB60002338002B610CF011FCA06858
:10BC800000F0D0FF0C220021059028000EF0E7F80C
:10BC90001420FDF77FFC8A4B2A0015930300C2CACB
:10BCA000C2C3884B059EC3600023A436036133687A
:10BCB000002B00D0F7E03060A06800F0C3FF0C223A
:10BCC0000021060028000EF0CAF81420FDF762FCDF
:10BCD0007D4B1593030086CD86C37C4BC360002348
:10BCE0000361336B002B00D0DFE03063A06800F00D
:10BCF00099FF15AD0C220021060028000EF0AFF8C8
:10BD00001420FDF747FC724B98361593030086CD3F
:10BD100086C3704BC360002303613368002B00D0DF
:10BD2000C5E0012504AB1B7C04AA2B43306008A9A5
:10BD3000280013740BF091FAA06800F093FF0368D9
:10BD400065495B6A9847A06800F08CFF0368634907
:10BD50009B699847A06800F085FF00230268009364
:10BD6000166804992A00B047049B002B0AD02000D3
:10BD70000BF02FFB032805DDA06800F073FF0368BC
:10BD8000DB6898470EA80BF0A7FA2F2004ABC01869
:10BD90000BF0A2FA362004ABC0180BF09DFA3D2040
:10BDA000042504ABC0180BF097FA0EAB0A93A068F9
:10BDB00004AB5D7700F056FF03680AA91B6998473A
:10BDC000A06800F02FFF03680AA95B6D9847A06880
:10BDD00000F028FF03680021DB6D9847A06800F0A1
:10BDE00021FF036802219B6D984700212000FFF787
:10BDF000FBFE1820FDF7CEFBA16800F007FA384BD8
:10BE0000384A1B68A1680393374B15A81B680CAE12
:10BE10000293364B00271B680193069B1B685B1936
:10BE20000093334B12681B68FFF7BCFD3020FDF711
:10BE3000B1FB079AA16800F0AFFAA06800F0F2FE2B
:10BE4000036831009B6A98470823A0683380DB1899
:10BE50007380B78000F0E6FE03683100DB6A984724
:10BE60002900A0680BF07FFA099A09219378A0684D
:10BE700052190BF08BFAA06800F0D4FEC8210771AC
:10BE8000A068FFF771FD04AB1B7FBB4204D0A06824
:10BE900000F0C8FE0BF051FA09A80AF0CEF995237C
:10BEA0009B009D44F0BD036105E703611DE703614D
:10BEB00037E7C046ACFDFFFF07B202007B7202000D
:10BEC000ADBB01008972020039B601009772020011
:10BED000C5720200A5720200F5BE010029BF010073
:10BEE000F8260020F426002008200020F02600205C
:10BEF0000C20002013B506226846FDF767FC094BAD
:10BF00001C68002C0AD0694601A80AF0EBF9200051
:10BF100001A90BF07FFA01A80AF08FF968460AF030
:10BF20008CF913BDFC260020002373B501AE0C0074
:10BF300031000500019302F015FE002802D1B2780D
:10BF4000064B1A70064B1868002806D06142614102
:10BF5000044BC9B21D800BF065FA73BDF4210020BB
:10BF6000FC260020242A0020F0B5070097B002919B
:10BF700007A89D490592FDF719FC9C4908A8FDF703
:10BF800015FC3A000FAC20001C3207A90AF0C1F9D9
:10BF900008AA210009A80AF0BCF920000AF04DF90E
:10BFA00093490AA8FDF702FCB86800F03BFE03685D
:10BFB00004255B69984720000BF08EF9332004AB11
:10BFC000C0180BF089F93A2004ABC0180BF084F9C3
:10BFD000412004ABC0180BF07FF90D9400240DAE86
:10BFE000B8687571347100F01DFE036831005B6D37
:10BFF0009847B86800F016FE036821009B6D9847CB
:10C00000B86800F00FFE030006000A331F2221006B
:10C01000180003930DF023FF039B3000DC770BF037
:10C0200083F90621B8680BF09EF9099A09219378E3
:10C03000B86852190BF0AAF9B86800F0F3FDC821EE
:10C040000471B868FFF790FCB86800F0EBFDFF26BC
:10C050000481B86800F0E6FD0BF06FF90298FEF776
:10C06000ADFC0AA90CA80AF03DF978220CA90298A7
:10C07000FEF76CFD0CA80AF0E0F8029938000BF00E
:10C08000E4F93800FDF7ACF80394049501257B69C9
:10C090001D402DD057490BA800F0B6FC0BA90CA8E9
:10C0A0000CF05AF900220CA9130001920092029898
:10C0B000FEF7F0FC0CA80CF042F9039B002B42D1D8
:10C0C000043E282E41DD0025FE2E00DC039D059850
:10C0D0000AF0ECFA002806D001237A699A4313008B
:10C0E000049A13437B6100240BA80CF028F90395F4
:10C0F0007B69049A134233D0FF210298C825FEF7CA
:10C100004BFD0024AD00BB6902229B5E9C4222DAFB
:10C11000380021B218300AF012F900230100029809
:10C120001A00743000F0C0FC2800FDF7F1F8029806
:10C130000AF0DBFCC820FDF7EBF802227B69134212
:10C1400009D10134DFE70436BBE702980AF0CDFCE1
:10C15000002EBCDDBAE7FA208000FDF7D9F80024F4
:10C1600002237D691D421CD006331D4024D0224984
:10C170000BA800F049FC0BA90CA80CF0EDF800226C
:10C180000CA90192009213000298FEF783FC0CA800
:10C190000CF0D5F81948FDF7BBF80BA80CF0CFF858
:10C1A000174C6420FDF7B4F8164B01349C4200DCB8
:10C1B0006CE709F00EFF69E713490BA800F024FCB7
:10C1C0000BA90CA80CF0C8F82B002A000CA90195AB
:10C1D00000950298FEF75EFC0CA80CF0B0F80BA8D6
:10C1E0000CF0ADF8DDE7C04620B1020030B102002E
:10C1F00032B1020040B1020085B10200983A00005D
:10C200008C0A00008B0A0000C2B1020000225C4BC5
:10C21000F0B50833060003600F001000A9B0B1604C
:10C220000BAB991801324870102AFAD10F3A554CCD
:10C230001A700E32105D991A0874013AFAD2997B7D
:10C240005A7B09020A4331000C31039125211B78E6
:10C2500013AD2B7002ABC918452302A81B186A82C4
:10C26000180010220DF0E0FD039B64216B61012397
:10C27000002402AA2B832B775218093313701DABAD
:10C280001C706D2302AA9B181C706E2321009B1842
:10C290001EA80C226C83EC836C621C700DF0DFFD19
:10C2A000394B0C22210023A8AB63EC630DF0D7FDC2
:10C2B000364B0322EB64462302A95B18DA7722008F
:10C2C0002C650595347306AD2B1901345A70102C6A
:10C2D000FAD101232E482B700E33195CEA1A11741F
:10C2E000013BFAD211212520AA7B6B7B12020BACF9
:10C2F00013432A78638202ABC9182270C018102237
:10C300000DF092FD0123237505ABA36100233800D6
:10C31000A38300F097FC036821001B68984713ABC8
:10C32000DB8BB068B38200F08DFC002203680092C2
:10C33000B18A039ADC680123A047B06800F082FC50
:10C3400007001420FDF726F904000C2200210DF04F
:10C3500086FD002320002361069340C0013308229C
:10C36000290007930DF060FD0A4BE360BB69002BC9
:10C3700003D13000BC6129B0F0BD2361F9E7C046AC
:10C380003CA3020022B202006D7202005F72020042
:10C3900032B20200AD740200F0B500260400764B04
:10C3A000DDB0083303608160C26086808671320030
:10C3B000724947A80BF01AF923001433089301239C
:10C3C0000493113301930E3B0093089A330047A95D
:10C3D000039602961DA8FFF77BFA3200684947A82A
:10C3E0000BF004F901232200049307330193043B6B
:10C3F00015AF1032009347A933000396029632A876
:10C40000FFF766FA32005F4938000BF0EFF82300BF
:10C410001C3309930123049307330193043B390030
:10C420000093099A33000396029647A8FFF750FA43
:10C430003200554938000BF0D9F85420FDF7AAF81E
:10C44000230018330793012305000493113301934C
:10C450000E3B39000093079A330003960296FFF7CC
:10C4600037FA2800494BA5620822EC620AA930304D
:10C470000A930B960DF0D8FC454B0422AB630123C5
:10C4800029352B702682668223690999E361079812
:10C490000DF0CAFC0422079908980DF0C5FC66222D
:10C4A000032304A95218D377BA225218D3778722CC
:10C4B00052005218D377A26AA685911CCB771DAB88
:10C4C0000C9332AB0D930F9247AB3200314910A859
:10C4D0000E930BF08BF830223121452004AB9B18D2
:10C4E0001B7812323B7004AB9B181B88323A7B825C
:10C4F00004ABC918C0180DF097FC04230CADA0685C
:10C500003B75BD61BE8300F09DFB036839001B686D
:10C510009847822204AB9B181B885432238404ABB7
:10C520009B181B885432A38404AB9B181B88A068FB
:10C53000638400F087FB07001420FDF72BF805004B
:10C540000C2231000DF08BFC2800134B2E610822C9
:10C550001093119610A910C00DF066FC0F4BEB6004
:10C56000BB69B34206D1BD612000FCF739FE200053
:10C570005DB0F0BD2B61F6E748A3020062B2020095
:10C5800042B2020052B2020072B20200BF75020053
:10C590002B75020082B2020009C601005575020027
:10C5A000F0B504000E00150085B000930CAB1B889D
:10C5B0001030019309F0D0FE268065801820FCF72A
:10C5C000E9FF070002AE33003D000AAA03CA03C315
:10C5D000009B102208C5002128000DF040FC31000E
:10C5E000082228000DF020FC064B02227B6120006F
:10C5F00000230199A7600A43E360A280236263627B
:10C6000005B0F0BD7F750200F0B50B898DB00593C4
:10C61000CB68060004934B88828C9A420ED1049C0E
:10C62000059B049A1B1BD318032B3BDD62882188D2
:10C63000012308A809F09BFE0434F1E7428C9A42DA
:10C6400030D1049C059B049A1B1BD318032B29DDB6
:10C650002388282006936388F7680793124B089372
:10C6600000230993FCF796FFC0236A460500029356
:10C6700008AB03CB03C233000699079A2800FFF7E3
:10C680008FFF3B6829005B6838009847002807D077
:10C69000002D05D0280009F086FD2800FCF79AFF40
:10C6A0000434CFE70DB0F0BD3D76020070B5040054
:10C6B00090B080680AF0BDFF022101401AD1A38D1D
:10C6C000002B17D00C4B6A4604931023E568A18514
:10C6D0000591029304AB41CB41C20A00230006A896
:10C6E000FFF75EFF2B6806A99B682800984706A8FD
:10C6F00009F059FD10B070BD3D760200002815D03C
:10C70000006041608260C360046145618661C76109
:10C71000444604624C464462544684625C46C462A9
:10C72000644604636E46466374468463002A06D0FA
:10C73000C46B043C043A25681560B442F9D18C6B93
:10C74000A6464E6BB546002B06D0CC6B043C043B92
:10C750001D682560B442F9D10C6BA446CC6AA3468F
:10C760008C6AA2464C6AA1460C6AA046CF698E69C3
:10C770004D690C69CB688A68086849687047006031
:10C7800041608260C360046145618661C76144465F
:10C7900004624C464462544684625C46C462644609
:10C7A00004636E46466374468463C46B043C043978
:10C7B00025680D60B442F9D1C76986694569046985
:10C7C0007047006041608260C360046145618661BA
:10C7D000C761444604624C464462544684625C46E7
:10C7E000C462644604636C464463744684630469AB
:10C7F0007047846BA646446BA546046BA446C46A86
:10C80000A346846AA246446AA146046AA046C76950
:10C81000866945690469C368826800684168704731
:10C8200010B5041E0CD00DF062FB431EE3189C42B1
:10C8300008D222781978013B21705A700134F6E74A
:10C84000014810BD0020FCE717FCFFFFF0B585B0E4
:10C8500002900C1E2AD00023C217161A56400193CC
:10C86000019B30005D1C63190A215F1E039304F0D5
:10C870006FFA49423031397030000A2104F082F9F0
:10C8800047420600002F0FD1029B002B04DA2D2314
:10C89000019D039A02351370002320006355FFF7B2
:10C8A000BFFF380005B0F0BD0195D9E7004FF8E7AC
:10C8B00017FCFFFF10B582604A4304004160002A64
:10C8C0000ADD074B90009A4201DD01204042FCF74F
:10C8D00061FE2060200010BD00230360FAE7C0461F
:10C8E000FEFFFF1F4A688B6870B5836053430400E6
:10C8F0000D004260002B12DD0A4A9E003000934278
:10C9000001DD01204042FCF745FE002320602A683B
:10C91000D158C15004339E42FAD1200070BD00238B
:10C920000360FAE7FEFFFF1F014B03607047C0463C
:10C9300060A3020030B500684488A14206DA858809
:10C94000AA4203DA002901DB002A01DA034830BDDC
:10C9500054434018001983710020F8E717FCFFFFCB
:10C96000F0B5070085B00E001D0000291FDD002B6B
:10C970001DD00468638803938B4200DD0391A38874
:10C980000293934200DD0292002306340193019B3F
:10C99000029A93420EDA29002000039A0DF044FA1D
:10C9A0003B68AD195B88E418019B0133EEE7024850
:10C9B00005B0F0BD0020FBE717FCFFFFF8B5040051
:10C9C0000D0016001F00002901DB002A02DA0D4BC2
:10C9D0002360F8BD100048430630FCF7DBFD206003
:10C9E00009F011FD23685D809E80002F06D03B007A
:10C9F000320029002000FFF7B3FFEAE720000BF028
:10CA0000B3FCE6E760A30200F0B5060087B00D1E98
:10CA10001BD000200F000400010001903B78002B88
:10CA20001FD03022524294469C446246092A16D9AD
:10CA30000A2B0FD1019B241801330193A14200DA84
:10CA40002100002004000137E8E7164B03603000A6
:10CA500007B0F0BD0028F6D001340020F3E7012034
:10CA6000F1E76A46928809B212B23000FFF7A6FFDA
:10CA700033689C1D03AB1F002A78002AE7D0110001
:10CA80003039092903D81A7001330135F4E700223F
:10CA90001A70BB42F9D938000DF091F93B002070B3
:10CAA0000134F2E760A30200F0B587B0009004A85B
:10CAB00015001E000F00FCF7F7FC009B1B685A884E
:10CAC00095422ADA9B88B34227DD1F2F25DD059B7F
:10CAD00001939F4221DC052300217B430193049BAA
:10CAE0000293019B029A5B18A03BD35C0022039344
:10CAF00073189C46009B57191B685888040087428E
:10CB000002DA988860450ADC0132052AF2D1013147
:10CB10000529E6D1002007B0F0BD0748FBE7DB1987
:10CB200010276046174160431B1803980740781E82
:10CB300087417F429F71E7E717FCFFFFF7B5036866
:10CB400006009C1D5B880D005A1A0192002919DD10
:10CB50000027994203DB0BF007FC002013E0336849
:10CB60009B889F42F9DA6119019A20000DF05CF967
:10CB7000019B2900E0180BF0E9FB336801375B8863
:10CB8000E418ECE70048FEBD17FCFFFF10B50548B0
:10CB9000054C206009F03AFC044A054920000CF0DD
:10CBA000DDFF10BD60A30200002700200020002050
:10CBB0003F830200002370B5040001604360994286
:10CBC0000AD1064D2B68002B02D10BF0C2FE286063
:10CBD00023689B00EB586360200070BD1427002081
:10CBE00070B500280DD10C4C2668002E07D10830F6
:10CBF0000CF0A2FF05003100FFF7DCFF2560206884
:10CC000070BD0122054906480B681340F8D1026047
:10CC100043600A60F4E7C04608270020042700208C
:10CC20000C270020436810B50400002B02D10448F3
:10CC30000CF09DFE606803681B69984710BDC046F4
:10CC400092B20200436810B50400002B02D10448E0
:10CC50000CF08DFE606803689B69984710BDC04664
:10CC600092B20200436810B50400002B02D10448C0
:10CC70000CF07DFE606803685B6A984710BDC04693
:10CC800092B2020010B5040002F0C6FC034B1B6810
:10CC9000002B01D02000984710BDC0461C27002063
:10CCA000F0B58DB0050001F09DFD002000F0DEFB29
:10CCB000036807001B6998473B6804009B693800BC
:10CCC00098473B6806005B6A38009847030028884D
:10CCD00010380B2862D803F0C1FE063E6161615B2B
:10CCE000616161676179AF88200039000CF040FA1A
:10CCF00022006B7B583201931378A8799C4602235B
:10CD000061460B43137006AB1F80012306AA937084
:10CD1000D07013006A461279E91D9A722B00062220
:10CD2000163307A80B930DF07FF829000B2006ABF4
:10CD300006220E31C0180DF077F894346368A360B2
:10CD4000A06800282AD0C36806A99847A368002BCA
:10CD5000F4D01B69F3E720002F49AF880CF008FAE4
:10CD60002200022058321378A9798343137006AB4E
:10CD70001F809970A0346368A360A06800280DD05C
:10CD8000C36806A99847A368002BF4D01B69F3E792
:10CD90005B69A91D002B01D0A888984729003000A5
:10CDA0000BF047FF0DB0F0BD636EAF79002BF5D0EF
:10CDB000A366A06E0028F1D0C36839009847A36E1F
:10CDC000002B01D1636EF3E71B69F1E701220D2708
:10CDD000AB7BE91D1A4001925A07920F0292DB08C1
:10CDE000062206A8EF5704930DF01EF86A46127942
:10CDF00006ABDA716A46127A9F711A726A46127C21
:10CE000020005A722B008C340F3309938030236832
:10CE100006A99847C2E7C046FFFF00000723D728AE
:10CE200002D9024B18600023180070471827002011
:10CE3000014B18607047C0461C2700201FB5A32374
:10CE40008022DB00D205D3580820DB0700D4053050
:10CE50001E4B48221E4901F0FFFE00280AD080B276
:10CE6000002807D1BFF34F8F1A4A1B4BDA60BFF37C
:10CE70004F8FFEE702AC0822002120000CF0EFFFEC
:10CE800001232370154B20001B6863600BF027FB08
:10CE9000002802D0072004B010BD68460BF01DFB2F
:10CEA0000028F7D169460BF016FB0028F2D10C4898
:10CEB00001F002FF80B20028EDD10A4801F006FF20
:10CEC00080B20028E7D100F035FEE4E7E3840200F9
:10CED000202700200400FA0500ED00E018270020BC
:10CEE000A1CC010085CC010080B2002807D1BFF39E
:10CEF0004F8F034A034BDA60BFF34F8FFEE7704753
:10CF00000400FA0500ED00E000487047FFFF000054
:10CF1000F0B597B00593036807AD1B6804910393C0
:10CF200011002B00060091C991C30024D368210091
:10CF30000C220CA8EB602C610CF091FF22000B4B33
:10CF400010940F9311AB1C70191901344A70102CF6
:10CF5000FAD15A820193059B2A00009304990CABE5
:10CF60003000039CA04717B0F0BDC0460586020004
:10CF7000FC3070B5046C0500002C0DD124200CF0A1
:10CF8000DBFD064B44608361054B8460C460046133
:10CF90004461C46103602864286C70BD3CA4020035
:10CFA00024A50200FC3070B5C56B0400002D11D122
:10CFB00034200CF0C1FD084B85604360074B456190
:10CFC0000361074B0562C361064BC5628362064B72
:10CFD000E0630360E06B70BD6CA402005CA402001F
:10CFE000CCA40200DCA40200ECA402007FB503790B
:10CFF0001548002B1CD0154E154C33782000002B03
:10D0000016D102AD28000BF0DAFA002815D16B8892
:10D01000592B12D12B78AA88D91F01290AD800923E
:10D020000C4A2021200008F04DFA01233370200023
:10D0300004B070BD0092084AF3E72022074920009F
:10D040000CF05CFFF3E7C046B5B20200A12A002055
:10D05000812A0020CFB20200ECB2020011B302001C
:10D0600010B50400024B08C00BF08CFB200010BD73
:10D070005CA4020010B50400024B08C00BF097FB43
:10D08000200010BD6CA40200064B70B504000360C4
:10D090004068002804D005690CF04AFD2800F8E734
:10D0A000200070BD4CA40200064B70B50400036064
:10D0B0004068002804D005690CF03AFD2800F8E724
:10D0C000200070BD7CA40200064B70B50400036014
:10D0D0004068002804D005690CF02AFD2800F8E714
:10D0E000200070BD8CA40200064B70B504000360E4
:10D0F0004068002804D005690CF01AFD2800F8E704
:10D10000200070BDCCA40200064B70B50400036083
:10D110004068002804D005690CF00AFD2800F8E7F3
:10D12000200070BDDCA40200064B70B50400036053
:10D130004068002804D005690CF0FAFC2800F8E7E4
:10D14000200070BD70A30200064B70B504000360A0
:10D150004068002804D005690CF0EAFC2800F8E7D4
:10D16000200070BD80A30200064B70B50400036070
:10D170004068002804D005690CF0DAFC2800F8E7C4
:10D18000200070BD90A30200064B70B50400036040
:10D190004068002804D005690CF0CAFC2800F8E7B4
:10D1A000200070BDA0A30200064B70B50400036010
:10D1B0004068002804D005690CF0BAFC2800F8E7A4
:10D1C000200070BD3CA40200FC3070B5046C05006A
:10D1D000002C0DD124200CF0AFFC064B4460836181
:10D1E000054B8460C46004614461C46103602864C9
:10D1F000286C70BD3CA4020024A50200104B10B5A1
:10D20000083303600F4B0400C36080230E4A5B00A9
:10D21000C250C018FDF7A8FA20000C4BB830E360EC
:10D22000FFF7B2FF2000AC30FFF79EFF2000A030D8
:10D23000FFF78AFF20006C30FFF776FF200010BD5B
:10D2400050A50200C8A50200F4A60200B0A3020087
:10D25000F0B50500040087B0AC356B68AB60A8681A
:10D26000002807D0C36821009847AB68002BF4D092
:10D270001B69F3E72500B0352868002804D006694B
:10D280000CF056FC3000F8E72200FC2158321378ED
:10D2900028600B40137023005C33187020000A30A4
:10D2A0000BF04EFB200034300BF04AFB606E002880
:10D2B00004D005690CF03CFC2800F8E725009835FF
:10D2C00060662868002804D006690CF031FC300044
:10D2D000F8E728602500A4352E68002E05D03769B0
:10D2E00030000CF025FC3E00F7E72E6001AD310068
:10D2F0000C2228000CF0B3FD23002A006C3383CAF3
:10D3000083C3094BE667A3670C22310028000CF0A9
:10D31000A6FD2300803307CD07C33000034A9034B5
:10D320001A60266007B0F0BDE9850200DB850200C7
:10D33000444AF0B50600C260A022434B16360833BB
:10D3400003600100002342820400320085B00371B3
:10D350008360037483823531137001329142FBD1B3
:10D36000802580222000AD00D201F37735841100A2
:10D3700000933830002300F0CBFD23002100403320
:10D3800003931A002B0000255F31157001328A4289
:10D39000FBD1039AFC21D5772200603213801379E8
:10D3A00020000B401371230068331D70274B256745
:10D3B000E3660C22002178300CF051FD2300270099
:10D3C00088331D60224B0837FB67843700210C220D
:10D3D00038000CF044FD1F4B1F4AFB602300A033B4
:10D3E0003D611A601D4A5D60DA601D4A1D619A61E7
:10D3F000DD6130000BF0A4FA03980BF0A1FA194B91
:10D40000601CE3602300C4331D705D709D70FF30AD
:10D4100002F0B6FB8C235B00E55023001933FF3389
:10D420005D618023104A5B00E2502300012220004E
:10D43000FE3352425A86023B9D63DD631D6405B094
:10D44000F0BDC046B0A3020050A5020070A30200C8
:10D45000E9850200DB85020080A3020090A30200A0
:10D46000A0A30200C8A50200F4A6020070B5074CF4
:10D470002368002B07D1A02040000CF05DFB0500C5
:10D48000FFF756FF2560206870BDC0466827002062
:10D4900070B50C220D00002104000CF0E0FC00230C
:10D4A0002361024B25602000E36070BDF785020018
:10D4B00070B500250400254B05710360244B4571B0
:10D4C0008360244BC5604361234B85610362234B1A
:10D4D0004562C362224B05638363C5632900443000
:10D4E000FFF7D6FF200029005830FFF7D1FF2000BA
:10D4F00029006C30FFF7CCFF1A4B22002360230079
:10D500008032F83320C29342FCD126001D00E93658
:10D51000FF3628000822002108350CF0A0FCB54297
:10D52000F7D18E239B00E218002308C5AA42FCD144
:10D530008E2200219200A3540B4B0C4AE318A21830
:10D54000198002339A42FBD1200070BD9CA40200D6
:10D550004CA402005CA402006CA402007CA40200A3
:10D560008CA4020098A502003A02000062020000AA
:10D5700070B500200C00FFF779FF03685B6A9847DD
:10D580002378142B1ED003D8132B0CD0002070BD91
:10D59000152B1FD0222BF9D10369002BF6D062681E
:10D5A00010889847F2E765680122AB7819005C089B
:10D5B000114022404468DB065B0F002CE6D028882F
:10D5C000A047E3E78368002BE0D062689178108879
:10D5D0009847DBE76468A27813091207120F012A43
:10D5E00003D0022A0DD0002106E0013BDBB200216E
:10D5F000022B01D8064AD15CC368002BC6D0208814
:10D60000E6E70421012BF7D00131022BF4D0EAE741
:10D6100019B30200014B18787047C046A22A0020B7
:10D62000F0B51D002F4B87B001921A780023070038
:10D630000C009A4204D102F023F8002803D00B23F7
:10D64000180007B0F0BD002D0ED003A922200395CD
:10D650000BF004FA002807D006230828F0D0113870
:10D66000434243410433EBE7002302AA1000137046
:10D6700000F07AFE011EE2D101251B4E2F403378C7
:10D680002C40AB433B43620002271C000720019B58
:10D69000BC43034014431C22BB4094431C433470DE
:10D6A00003AC103A20000CF0DAFB09200F4B3100DC
:10D6B000039302AB0522C01827710CF0B5FB2100C3
:10D6C0000B4800F0BBFE002807D007230428B7D082
:10D6D000013B0828B4D00533B2E7024B1D700300AC
:10D6E000AEE7C046A22A0020F521002071D5010036
:10D6F000A32A002010B5074800F070FF00239842CD
:10D7000006D00733042803D0013B082800D0053396
:10D71000180010BDA32A0020002373B501930F4BFE
:10D7200001AD1B780E0029002B7001F01BFA041EBE
:10D7300005D00423052800D00733180076BD31003A
:10D74000280000F0B5FE23000028F6D007230428A7
:10D75000F3D0013B0828F0D00533EEE7A32A0020E0
:10D7600073B5104C0E0005000522210068460CF030
:10D770005BFB012E03D0022E0FD002230BE002220E
:10D780002378B34393436946280023700BF064F970
:10D79000031E00D00B23180076BD0123227813430B
:10D7A000B343F0E7F5210020094B10B51A780100CA
:10D7B0000923002A09D0074800F0B2FE002398424E
:10D7C00003D003330E2800D00333180010BDC04629
:10D7D000A22A0020A32A002013B504680093A4689D
:10D7E00013000A000149A04716BDC046FFFF000014
:10D7F00037B506AC257804680195009324691300B9
:10D800000A000149A0473EBDFFFF0000F0B589B006
:10D81000019307000FAB0D0016000021082202A89B
:10D820001C780CF01CFB0EAB1B8802AA1380019B1A
:10D830000393002C09D0310028000BF025F9031EBA
:10D8400000D00323180009B0F0BD3B007A79F8330B
:10D85000A2420DD90833190008390988B1420FD105
:10D8600030222034A400E3590133DB7F134213D16B
:10D8700002AA310028000BF007F90028E1D107E0E7
:10D880000134E5E71C4B9A4204D01C4B9A4229D143
:10D890000623D7E70523D5E7102213405A42534108
:10D8A000002004AC0133A370019B2680E3600EAB23
:10D8B000A360134BA0809D4207D1FFF7D7FD0368FB
:10D8C0001B6998470BF057FC0500210028000BF05E
:10D8D000DFF8002382B29A42B4D0112ADAD0D1D82C
:10D8E000082AD5D002AA310028000BF0CDF8052374
:10D8F0000028A7D0023BA5E7033000000134000058
:10D90000FFFF0000F0B5050099B008002E240C912F
:10D9100000F0ACFA06ABE4181290220012A9012024
:10D920000BF0B0F8002802D0032019B0F0BD238816
:10D930000C9A0B9093830C9B0B9A1B7D9A4200DBF5
:10D9400098E06B791D2B01D90720EEE70C9B9B69B2
:10D950000D930B9B0D9A9B009C586369002B00D084
:10D960008DE0638B002B00D089E0631CDB7F022BF2
:10D9700000D084E00B980130C3B20B93DBE76979E8
:10D98000A31C1F31C9006918621CDB7FD27F08917C
:10D9900021002A31097800200791210029310978D6
:10D9A00006910E9905910D990491217F0391218B88
:10D9B0000291618B01916169009112A90BF0FBFB4F
:10D9C0000028B1D16B7907001A00203292001F3372
:10D9D0005451DB005B5BE3836B7901336B71230094
:10D9E00028331B789F42C5DA8E239B00EB5C132BF8
:10D9F000AAD8626ABB009E580023180013A90B70B6
:10DA0000CA1801335070102BFAD1354B30004B82BD
:10DA10000BF0C1F80D90002829D1300000F026FA53
:10DA20008E229200AA5C738B1E32FF325200AA181B
:10DA30000292327F12900192328B12A90092726987
:10DA40000D980BF098FC002800D06DE78E238E21F6
:10DA50009B00EA5C8900531CDBB26B541D337A32A5
:10DA6000FF3392005B005651EB185B88F38301375C
:10DA7000FFB2B4E72B79002001332B7155E720006A
:10DA800000F0F4F923000026283312900E960D962C
:10DA90000F930F9B1B789E4200DB70E7626AB30016
:10DAA0009F58342206AB9B1800221A7000230021D5
:10DAB00013AAD21801335170102BF8D1462206ABAD
:10DAC0009B18074A13A938001A800BF064F8002845
:10DAD00003D07B8B0E937B690D930136F6B2D8E7AA
